S010000053414D45353476332E73726563DC
S1130000480C0120C1060000BD060000BD0600002A
S1130010BD060000BD060000BD0600000000000093
S1130020000000000000000000000000BD06000009
S1130030BD06000000000000BD060000BD06000073
S1130040BD060000BD060000BD060000BD060000A0
S1130050BD060000BD060000BD060000BD06000090
S1130060BD060000BD060000BD060000BD06000080
S1130070BD060000BD060000BD060000BD06000070
S1130080BD060000BD06000051150000BD060000BD
S1130090BD060000BD060000BD060000490D0000BD
S11300A0BD060000BD060000BD060000BD06000040
S11300B0BD060000BD060000BD060000BD06000030
S11300C0BD060000BD060000BD060000BD06000020
S11300D0BD060000BD060000BD060000BD06000010
S11300E0BD060000BD060000BD060000BD06000000
S11300F000000000BD060000BD060000BD060000B3
S11301002D040000BD060000BD060000BD06000071
S11301106D090000BD060000BD060000BD0600001C
S113012029090000BD060000BD060000BD06000050
S1130130BD060000BD060000BD060000BD060000AF
S1130140BD060000BD060000BD060000BD0600009F
S1130150BD060000BD060000BD060000BD0600008F
S1130160BD060000BD060000BD060000BD0600007F
S1130170BD060000BD060000BD060000BD0600006F
S1130180BD060000BD060000BD060000BD0600005F
S1130190BD060000BD060000BD060000BD0600004F
S11301A0BD060000BD060000BD060000BD0600003F
S11301B0BD060000BD060000BD060000BD0600002F
S11301C0BD060000BD060000BD060000BD0600001F
S11301D0BD060000BD060000BD060000BD0600000F
S11301E0BD060000BD060000BD060000BD060000FF
S11301F0BD060000BD060000BD060000DD1E0000B7
S1130200DD0D0000BD060000BD060000BD060000B7
S1130210BD060000BD060000BD060000BD060000CE
S1130220BD060000BD060000BD060000BD060000BE
S1130230BD060000BD060000BD060000BD060000AE
S1130240BD060000BD060000BD060000BD0600009E
S1130250BD060000BD060000BD060000BD0600008E
S1130260BD06000010B5054C237833B9044B13B117
S11302700448AFF300800123237010BD640B0020F9
S113028000000000082E00000C4B43B10C480D493F
S113029010B5AFF300800C48036823B910BD0A48B9
S11302A0036833B97047094B002BF7D0BDE8104001
S11302B01847064B002BF5D0184700BF000000007C
S11302C0082E0000680B0020082E0000000000002B
S11302D02B4B93F83220032161F3030283F832207D
S11302E093F8442042F0010283F8442093F832202A
S11302F061F3071283F8322093F8452042F001029B
S113030083F8452093F83221022161F3030283F834
S1130310322193F8322161F3071283F8322193F8E2
S1130320332161F3030283F8332193F8442142F02B
S1130330010283F8442193F8452142F0010283F835
S1130340452193F8462142F0010283F84621D3F86F
S1130350082142F04002C3F80821D3F8082142F0F2
S11303608002C3F80821D3F8182142F04002C3F8F0
S11303701821D3F8182142F08002C3F818217047DD
S1130380008000410022274B1A601A46D369002BD3
S1130390FCD1244B1A6842F080421A601A686FF349
S11303A01C721A601A686FF34F321A601A680121BE
S11303B061F315521A601A68022060F311421A6040
S11303C01A6861F384021A605A6842F400325A606F
S11303D05A6842F480325A605A686FF34D325A6058
S11303E05A686FF386125A605A686FF302025A60B1
S11303F01A46D369002BFCD10A4B4DF6AE029A8102
S11304009A7D42F004029A7507494A6842F48032A0
S11304104A601A6842F002021A601A46D369002B35
S1130420FCD170470030004000E100E0094B9B6ABA
S1130430DBB2094A13701378DBB20D2B08D0074BDB
S11304401A68511C1960044B1B78DBB204498B54A5
S1130450704700BF00300040C40B0020800B002018
S11304600000002000221A4B1A601A46D369002BA0
S1130470FCD1174B1A686FF39E721A601A686FF3F7
S113048011421A601A686FF31B621A601A6803211A
S113049061F384021A605A686FF34D325A605A68E5
S11304A06FF302025A601A46D369002BFCD1084B41
S11304B033221A739A7D42F002029A751A6842F046
S11304C002021A601A46D369002BFCD1704700BFA0
S11304D0000800430138094B08E01A7E12F0010FAE
S11304E0FBD099621A7E12F0020FFBD010F8011FA4
S11304F00029F2D10A22014B9A6270470030004071
S11305000138094B08E01A7E12F0010FFBD0996202
S11305101A7E12F0020FFBD010F8011F2329F2D12A
S11305200A22014B9A6270470030004008B51A4B0A
S11305305B68012B14DC18491848194B4A68825C23
S1130540D2B29A621A7E12F0010FFBD01A7E12F018
S1130550020FFBD04A6801324A604A68012AEDDD85
S11305600120104B9847104B1B6853B10E4B1B686E
S1130570012B0CD10D4B4022C3F89420C3F89820D2
S113058005E00A4B4022C3F81421C3F818210022C5
S1130590014B5A6008BD00BF800B0020CC0B00202B
S11305A0000800435D100000BC0B002000800041E7
S11305B01D4B1A685378DBB22F2B13D95378DBB257
S11305C0392B0FD89378DBB22F2B0BD99378DBB26E
S11305D0392B07D8D378DBB22F2B03D9D378DBB2EE
S11305E0392B00D9704700B583B0D378A3F130011B
S11305F0642303FB01F3019313790199303B03EB6B
S1130600830301EB430301935379019A303B134471
S11306100193019BDBB2054A5370054B1868054BE7
S1130620984703B05DF804FBC80B0020CC0B0020F6
S1130630C00B00202D0500001C4B1A685378DBB258
S11306402F2B32D95378DBB2392B2ED89378DBB2E7
S11306502F2B2AD99378DBB2392B26D800B583B057
S11306605378303B03EB83035B0001939378019A47
S1130670303B13440193019B072B0CDC019B5B0073
S1130680DBB20B4A137000220A4B1A600A4B9847DC
S113069003B05DF804FB019B083B5B00DBB2044A3A
S11306A013700122034B1A60F0E77047C80B002057
S11306B0CC0B0020BC0B0020B1050000FEE70000BD
S11306C008B5174B174A9A4210D0174B144A9A424E
S11306D00CD2013B9B1A23F0030304331344114946
S11306E051F8040B42F8040B9A42F9D10F4B104A0B
S11306F09A420AD2013B9B1A23F0030304331344A6
S1130700002142F8041B9342FBD10A4A0A4B23F00E
S11307107F039360094B9847094B9847FEE700BF56
S113072000000020082E0000640B0020480C00206C
S1130730640B002000ED00E000000000692C0000C4
S113074071110000014A024B1A607047006CDC0210
S11307500C0000201F4B93F8BD20022161F303021B
S113076083F8BD2093F8DA2042F0010283F8DA20FE
S113077093F8BD2061F3071283F8BD2093F8DB20C2
S113078042F0010283F8DB2093F83D2161F3071264
S113079083F83D2193F85B2142F0010283F85B2149
S11307A093F83E2161F3071283F83E2193F85C210C
S11307B042F0010283F85C2193F83D206FF30712A5
S11307C083F83D2093F85B2042F0010283F85B201C
S11307D0704700BF008000410022274B1A601A4670
S11307E0D369002BFCD1244B1A6842F080421A6072
S11307F01A686FF31C721A601A686FF34F321A602A
S11308001A68012161F315521A601A68022060F314
S113081011421A601A6861F384021A605A6842F439
S113082000325A605A6842F480325A605A686FF350
S11308304D325A605A686FF386125A605A686FF3E1
S113084002025A601A46D369002BFCD10A4B4FF6B8
S113085072129A819A7D42F004029A7507494A6895
S113086042F480124A601A6842F002021A601A4680
S1130870D369002BFCD170470034004000E100E054
S11308800022274B1A601A46D369002BFCD1244B53
S11308901A6842F080421A601A686FF31C721A6078
S11308A01A686FF34F321A601A68012161F3155206
S11308B01A601A68022060F311421A601A6861F320
S11308C084021A605A6842F400325A605A6842F448
S11308D080325A605A686FF34D325A605A686FF327
S11308E086125A605A686FF302025A601A46D36934
S11308F0002BFCD10A4B4FF672129A819A7D42F07A
S113090004029A7507498A6842F480528A601A6818
S113091042F002021A601A46D369002BFCD17047D8
S11309200020014100E100E008B50B4B9B6A0D2B50
S113093009D00A4B1A68511C1960074B9B6ADBB239
S113094007498B5408BD0022044B1A60054B1868F4
S1130950054B984708BD00BF00200141880B0020CB
S1130960D00B0020E40B0020D504000008B50B4B8D
S11309709B6A0D2B09D00A4B5A68511C5960074BCE
S11309809B6ADBB207498B5408BD0022044B5A60B2
S1130990054B1868054B984708BD00BF003400405C
S11309A0880B0020E80B0020000C0020D504000078
S11309B0302802D0312811D070470139104B08E09B
S11309C01A7E12F0010FFBD098621A7E12F0020F09
S11309D0FBD011F8010F0028F2D170470139094BFF
S11309E008E01A7E12F0010FFBD098621A7E12F012
S11309F0020FFBD011F8010F0028F2D1DCE700BF91
S1130A00003400400020014108B5724B19688B780E
S1130A10DBB24A78D2B2302A05D04A78D2B2312A2F
S1130A2000F0BE8008BDA3F13002082AF5D8DFE843
S1130A3012F009001C002F004200550068007B00E2
S1130A408F00A3006449654B19603020644B9847BC
S1130A50604B1B685B78DBB2312BE3D15E495F4BA3
S1130A60196031205E4B984708BD5E495B4B1960A5
S1130A7030205B4B9847574B1B685B78DBB2312BBC
S1130A80D0D15849554B19603120554B984708BD72
S1130A905549524B19603020514B98474D4B1B68B8
S1130AA05B78DBB2312BBDD14F494C4B19603120FF
S1130AB04B4B984708BD4D49484B19603020484B73
S1130AC09847444B1B685B78DBB2312BAAD147496A
S1130AD0424B19603120424B984708BD44493F4B73
S1130AE0196030203E4B98473A4B1B685B78DBB269
S1130AF0312B97D13E49394B19603120384B9847F7
S1130B0008BD3C49354B19603020354B9847314B73
S1130B101B685B78DBB2312B84D136492F4B1960CB
S1130B2031202F4B984708BD33492C4B1960302096
S1130B302B4B9847274B1B685B78DBB2312B7FF438
S1130B4071AF2D49254B19603120254B984708BDBD
S1130B502A49224B19603020214B98471D4B1B68B2
S1130B605B78DBB2312B7FF45DAF24491B4B1960FA
S1130B7031201B4B984708BD2149184B1960302080
S1130B80174B9847134B1B685B78DBB2312B7FF410
S1130B9049AF1B49114B19603120114B984741E76C
S1130BA0303B082B3FF63EAF01A252F823F000BFC2
S1130BB05D0A0000830A0000A90A0000CF0A0000B1
S1130BC0F50A00001B0B0000430B00006B0B000038
S1130BD0930B0000C80B002010000020FC0B002029
S1130BE0B1090000180000201C000020240000208F
S1130BF02C00002030000020340000203C000020A5
S1130C004000002008B51B4B1A685378DBB2302B28
S1130C1004D05378DBB2312B16D008BD9378DBB205
S1130C20302B0AD09378DBB2312BF6D11249134B17
S1130C3019603020124B984708BD12490F4B1960B8
S1130C4030200F4B984708BD9378DBB2302B0AD085
S1130C509378DBB2312BE0D10749084B196031207E
S1130C60074B9847D9E70749044B19603120044BD7
S1130C70984708BDC80B00204C000020FC0B002046
S1130C80B10900004800002070B50E4D0E4E06F16B
S1130C904401296030200D4CA04729683120A04729
S1130CA006F1500129603020A04729683120A0476F
S1130CB006F1380129603020A04729683120A04777
S1130CC070BD00BFFC0B002010000020B109000023
S1130CD000221B4B1A701A465368002BFCD1184B88
S1130CE01A786FF304121A701A6942F400621A61D6
S1130CF09A6942F400629A611A6A032161F30E321E
S1130D001A629A699A611A6B42F400621A635A6B06
S1130D1042F480325A635A6B42F080025A635A6B2F
S1130D20062161F306125A6302221A701A465368A6
S1130D30002BFCD1034A136843F40003136070478B
S1130D400028004000E100E04FF40062054B5A61C6
S1130D50054A5379012161F3471353711369002B39
S1130D60FCD1704700280040001800420022194BB3
S1130D701A601A461369002BFCD1164B1A68042119
S1130D8061F30A221A601A686FF383021A605A79AF
S1130D900A435A711A461369002BFCD10D4A537A3F
S1130DA043F0010353721369002BFCD1094A136801
S1130DB043F0020313601369002BFCD1054A5379F5
S1130DC0022161F347135371034AD36843F4803318
S1130DD0D36070470018004200E100E070B5154A86
S1130DE0937A43F0010393721369002BFCD1124BE5
S1130DF09B6BB3F5006F09D0104D11492960302069
S1130E00104CA04729683120A04770BD0B4E0E4CF2
S1130E1004F15C01316030200A4DA847316831206B
S1130E20A84704F13C0131603020A84731683120E3
S1130E30A84770BD0018004200280040FC0B0020A9
S1130E4048000020B109000010000020324B9A69CC
S1130E5042F400429A619A69042161F3CE229A61B4
S1130E609A6942F4C0629A619A6942F080029A6176
S1130E709A6942F040029A619A690A439A619A69AE
S1130E8042F002029A6103F54063244A1A62A2F511
S1130E9030225A621A465368002BFCD1204BD3F8F7
S1130EA09C206FF38612C3F89C204022C3F89C2038
S1130EB0C3F81021C3F8F820C3F82021C3F8242173
S1130EC0C3F890204122C3F8A020C3F8DC20A3F586
S1130ED0A05301225A715A6942F480525A611A6A23
S1130EE042F004021A62DA6942F02002DA61DA6935
S1130EF042F04002DA611A6A42F4C0721A625A6914
S1130F0042F480625A615A6942F400525A619A6901
S1130F1042F400729A6170470010004001290C00ED
S1130F20001C00404B4B1A685378DBB22F2B2FD98F
S1130F305378DBB2392B2BD89378DBB22F2B27D9FC
S1130F409378DBB2392B23D882B05378303B03EB50
S1130F5083035B00019393780199303B0B44019325
S1130F60019B032B13D8DFE803F002203C58D3780D
S1130F70DBB24C2B0DD0D378DBB26C2B09D0D378F9
S1130F80DBB2482B0BD0D378DBB2682B07D002B08E
S1130F9070474FF08062304BC3F89420F7E74FF06E
S1130FA080622D4BC3F89820F1E7D378DBB24C2B49
S1130FB011D0D378DBB26C2B0DD0D378DBB2482BB5
S1130FC003D0D378DBB2682BE1D14FF00062224B1F
S1130FD0C3F89820DBE74FF000621F4BC3F894205E
S1130FE0D5E7D378DBB24C2B11D0D378DBB26C2BA2
S1130FF00DD0D378DBB2482B03D0D378DBB2682B87
S1131000C5D14FF08052144BC3F89820BFE74FF07E
S11310108052114BC3F89420B9E7D378DBB24C2B40
S113102011D0D378DBB26C2B0DD0D378DBB2482B44
S113103003D0D378DBB2682BA9D14FF00052064B12
S1131040C3F89820A3E74FF00052034BC3F8942051
S11310509DE700BFC80B00200080004182B00190D2
S1131060019A4FF47A7303FB02F3002B08DD00228C
S11310704FF47A710132019B01FB03F39342F9DCD3
S113108002B070472DE9F84F01686425012000245F
S11310902A460746324E4FF0410B4FF0390A4FF0C3
S11310A038094FF037084FF0360C4FF0350E1DE07D
S11310B020460A252A4619E03D4638463A4615E0B8
S11310C0013809283FD8DFE800F0051A1E22262A35
S11310D02E32363A30233355013405FB1011012CDE
S11310E0E6D0022CE8D00120032C30DC91FBF2F393
S11310F002FB13138B42E3D001302A44F4E731237B
S113110033550134E9E7322333550134E5E733231A
S113111033550134E1E7342333550134DDE706F870
S113112004E00134D9E706F804C00134D5E706F831
S113113004800134D1E706F804900134CDE706F8C1
S113114004A00134C9E706F804B00134C5E700225D
S1131150034BDA70034B1868034B9847BDE8F88FCC
S1131160040C0020080C0020D5040000000000003E
S11311702DE9F04788B0904B9847904B98474FF033
S113118070528F4BC3F888208E4B98478E4B9847EC
S11311908E4B98478E4B98478E4B98478E4B98476B
S11311A08E4B98478E4B98478E4B98478E4B98475B
S11311B08E4B98478E4B98478E4B98478E4B98474B
S11311C08E4B98478E4A06AB92E8030083E80300EF
S11311D018468C4B98478C4A8C4B1A608C4A8D4B22
S11311E01A608D4A8D4B1A608D4A8E4B1A608E4A56
S11311F08E4B1A608E4A8F4B1A608F4A8F4B1A603F
S113120000238DF817308E4CDFF80882DFF880A2B7
S1131210DFF8809200268B4F09E08B4D01232B6071
S11312207E4B1868894B984700232B6023702378E2
S1131230DBB20D2BFBD1D8F800301A78D2B26D2A6C
S1131240EBD01A78D2B24D2AE7D01A78D2B2742AE7
S113125040D01A78D2B2542A3CD01A78D2B2632A37
S113126079D01A78D2B2432A75D01A78D2B26B2ABE
S11312707AD01A78D2B24B2A76D01A78D2B2642AAB
S11312807BD01A78D2B2442A77D01A78D2B2652A9F
S11312907CD01A78D2B2452A78D01A78D2B26C2A85
S11312A07DD01A78D2B24C2A79D01A78D2B2662A72
S11312B000F0F2801B78DBB2462B00F0ED8008A82A
S11312C0634B40F8103D4F4B984700235E4A136030
S11312D02370ACE701225C4B1A6041F606025D4BB9
S11312E09A801A46136B13F0040FFBD10122594B59
S11312F01A751A4692F82E3013F0010FFAD0554B96
S1131300B3F840309BB201930198534B9847514630
S1131310524B98474946524B984702900298514B7A
S1131320984732463B46504DA84721A3D3E90023B2
S11313304E4DA8474E4B9847029002984D4B984704
S113134008AB43F8140D18464B4B984700233E4A0C
S1131350136023706BE73C4D01232B60474B984788
S113136000232B60237062E7374A042313600023B1
S113137013602370424B984759E7334A052313609F
S11313800023136023703F4B984750E72E4A0323F2
S113139013600023136023703B4B984747E72A4AA6
S11313A003231360002313602370384B98473EE7F0
S11313B00AD7A3703D0A973F450700004D0E000071
S11313C0008000418503000065040000351C000016
S11313D0B91B0000B11C0000B91A0000D1020000C2
S11313E0D90700008108000055070000D10C000057
S11313F06D0D0000890C0000D1140000FD140000E4
S1131400D82D0000D50400009C0B0020200C0020E7
S113141000000020C80B0020700000200C0C0020ED
S1131420CC0B0020C00B0020040C0020080C002072
S1131430E80B0020000C0020D00B0020E40B00205F
S1131440C40B00200000F63F800B002001050000C3
S11314500A3F0A0000200043D5280000E52A0000C6
S11314607D290000F5210000351F0000F124000053
S1131470C12600001D2C0000851000000D1F000077
S1131480250F000039060000090A0000050C0000C1
S113149000007F430000A0400A4A02231360002397
S11314A0136023709DF817302BB1D8F800305878AA
S11314B0054B9847BBE6054B984701238DF8173039
S11314C0F3E700BF800B00204D190000F118000065
S11314D0094B93F833206FF3030283F8332093F816
S11314E0462042F0010283F846204FF47062C3F8AC
S11314F08821C3F894217047008000410022124BD8
S11315001A701A465368002BFCD10F4B1A786FF3EC
S113151004121A701A6942F040021A619A6942F080
S113152040029A61DA69042161F31A62DA610222E3
S11315301A701A465368002BFCD1044A136843F40A
S113154080231360704700BF0028004000E100E0E2
S11315504022044B5A610122034B1A700022034BB0
S11315601A60704700280040940B0020140C0020DF
S113157082B00190019B03EB83035B00002B07DD2A
S113158000220132019B03EB8303B2EB430FF8DB30
S113159002B070472DE9F84F8A4B18608A4B1960E6
S11315A001228A4B5A701D46864F75E0884B1B6892
S11315B0642B2CDC874E4FF48079CA46C6F898A178
S11315C04FF4007BC6F894B1814C2068DFF80882A0
S11315D0C047236801332360C6F894912068C0474C
S11315E0236801332360C6F898B12068C047236894
S11315F001332360C6F898912068C04723680133FB
S113160023606B6804336B602368642BD6DD01238D
S11316103B6041E06E4B1B68092B2CDD6D4E4FF493
S11316208079CA46C6F898A14FF4007BC6F894B1F5
S1131630674C2068DFF8A081C0472368013B236022
S1131640C6F894912068C0472368013B2360C6F81C
S113165098B12068C0472368013B2360C6F898917D
S11316602068C0472368013B23606B6804336B60C8
S11316702368092BD6DC01233B600DE0554C4FF465
S11316808063C4F898310A20534B98474FF40063A1
S1131690C4F8943105233B606B78002B00F01D8166
S11316A03B68052BF8D801A252F823F07D16000000
S11316B0C5160000DD17000015160000AD1500006A
S11316C0D51800004FF40062424BC3F898213E4BFA
S11316D01B686A68033B934227DD3E4C4FF48079D4
S11316E0CA46C4F898A14FF4007BC4F894B1DFF85B
S11316F0E080D8F80000384EB047C4F89491D8F888
S11317000000B047C4F898B1D8F80000B047C4F856
S11317109891D8F80000B0476B6804336B602A4B8B
S11317201B686A68033B9342DBDC6A68264B1B68D0
S11317309A420FD0274B4FF48072C3F898214FF48C
S11317400072C3F89421224B1868234B98476B68A6
S113175001336B606A681C4B1B689A420BD04FF4D0
S113176080721C4BC3F89421194B18681A4B984784
S11317706B6801336B606A68134B1B689A420BD029
S11317804FF40072134BC3F89821114B1868124B95
S113179098476B6801336B606A680B4B1B689A420D
S11317A00BD04FF480720B4BC3F89821084B186888
S11317B0094B98476B6801336B6000233B606B6097
S11317C06AE700BF180C0020140C0020940B0020C2
S11317D02007002000800041711500004FF40062D2
S11317E03F4BC3F898213F4B1B686A68033B934205
S11317F027DD3B4C4FF48079CA46C4F898A14FF4D6
S1131800007BC4F898B1DFF8E480D8F80000364EC5
S1131810B047C4F89491D8F80000B047C4F894B124
S1131820D8F80000B047C4F89891D8F80000B04741
S11318306B6804336B602B4B1B686A68033B9342F1
S1131840DBDC6A68274B1B689A420FD0244B4FF4A9
S11318508072C3F898214FF40072C3F89821234B87
S11318601868214B98476B6801336B606A681D4B9D
S11318701B689A420BD04FF48072194BC3F8942121
S11318801A4B1868184B98476B6801336B606A6889
S1131890144B1B689A420BD04FF40072104BC3F8E0
S11318A09421124B1868104B98476B6801336B6096
S11318B06A680C4B1B689A4208D04FF48072084B3C
S11318C0C3F89821094B1868074B984700236B60AD
S11318D03B60E1E600236B70DEE6BDE8F88F00BFF5
S11318E000800041140C0020711500002007002026
S11318F010B50F480F4B18600F4B98474FF4806199
S113190001200E4CA0474FF414510220A0470C4B69
S11319101B7843B901220B4B1A600B48054B186026
S1131920054B984710BD96210120A047F2E700BF60
S113193024070020100C0020D50400009515000099
S1131940940B00201C0C00203007002010B5303808
S1131950062800F29F80DFE800F00407203B567160
S11319608C00514B984710BD504B1968D1F10101BF
S113197000F09080002907DB4FF4507303FB01F162
S113198003204B4B984710BD4C424A4B03FB01F1DB
S11319900220474B98472146EEE7444B1968D1F1A2
S11319A0020177D000290ADB4FF4507303FB01F1E5
S11319B003203F4B984702223C4B1A6010BD4C4217
S11319C03C4B03FB01F10220394B98472146EBE7DE
S11319D0364B1968D1F103015CD000290ADB4FF4BE
S11319E0507303FB01F10320314B984703222F4B23
S11319F01A6010BD4C422F4B03FB01F102202C4B0B
S1131A0098472146EBE7294B1968D1F1040141D0ED
S1131A1000290ADB4FF4507303FB01F10320244B2C
S1131A2098470422214B1A6010BD4C42214B03FB02
S1131A3001F102201E4B98472146EBE71B4B196826
S1131A40D1F1050126D000290ADB4FF4507303FBC2
S1131A5001F10320164B98470522144B1A6010BD60
S1131A604C42144B03FB01F10220114B98472146D1
S1131A70EBE70E4B1968D1F106010BD000290ADB04
S1131A804FF4507303FB01F10320094B98470622DE
S1131A90064B1A6010BD4C42064B03FB01F10220B9
S1131AA0034B98472146EBE7F11800001C0C00207B
S1131AB095150000C0FCFFFF3E4B93F8B2100122C5
S1131AC062F3030183F8B21093F8C410114383F84E
S1131AD0C41093F8301162F3030183F8301193F8C2
S1131AE04011114383F8401193F8301162F3071148
S1131AF083F8301193F84111114383F8411193F89D
S1131B00311162F3030183F8311193F84211114347
S1131B1083F8421193F8311162F3071183F83111FC
S1131B2093F84311114383F8431193F8311062F38E
S1131B30030183F8311093F84210114383F84210E3
S1131B4093F8311062F3071183F8311093F84310BE
S1131B50114383F8431093F8B21062F3071183F82A
S1131B60B21093F8C510114383F8C51093F8B0115F
S1131B7062F3030183F8B01193F8C011114383F8A1
S1131B80C01193F8B01162F3071183F8B01193F800
S1131B90C111114383F8C11193F8B41062F3030126
S1131BA083F8B41093F8C82042F0010283F8C820E7
S1131BB0704700BF0080004100221D4B1A801A4666
S1131BC0136B002BFCD11A4B1A886FF30A221A806C
S1131BD01A8842F080021A8003221A721A46136B82
S1131BE013F0100FFBD11822114BDA801A46136B35
S1131BF013F0080FFBD141F606020D4B9A801A46EA
S1131C00136B13F0040FFBD1094A137D43F0020355
S1131C101375136B13F4006FFBD1054A13889BB241
S1131C2043F002031380136B002BFCD1704700BFF9
S1131C300020004300221D4B1A801A46136B002B10
S1131C40FCD11A4B1A886FF30A221A801A8842F0C0
S1131C5080021A8003221A721A46136B13F0100FB3
S1131C60FBD11822114BDA801A46136B13F0080FBC
S1131C70FBD141F606020D4B9A801A46136B13F002
S1131C80040FFBD1094A137D43F002031375136B50
S1131C9013F4006FFBD1054A13889BB243F002038F
S1131CA01380136B002BFCD1704700BF001C004352
S1131CB00022154B1A601A461369002BFCD1124BF3
S1131CC01A68042161F30A221A601A686FF3830206
S1131CD01A605A790A435A711A46136913F0040FA9
S1131CE0FBD1094B5A7A42F001025A721A6842F047
S1131CF002021A601A461369002BFCD1034AD36806
S1131D0043F40043D36070470014004200E100E054
S1131D102DE9F04182B000230193019B072B00F3CE
S1131D20D3806B4B41F6040C01246A4841F6050E3E
S1131D30694A4FF4C05741F6010641F6070519E018
S1131D40A3F804C0196B11F0040FFBD11C7593F8B0
S1131D502E1011F0010FFAD0DDF80480B3F8401012
S1131D6089B240F82810019901310191019907299C
S1131D7000F3AA800199072900F2A0800FF2040859
S1131D8058F821F0411D0000A51D0000CD1D0000E4
S1131D90F31D0000191E00003F1E0000691E000014
S1131DA0931E0000A3F804E0196B11F0040FFBD19B
S1131DB01C7593F82E1011F0010FFAD0DDF8048091
S1131DC0B3F8401089B240F82810CCE79780116B23
S1131DD011F0040FFBD1147592F82E1011F0010FBD
S1131DE0FAD0DDF80480B2F8401089B240F8281027
S1131DF0B9E79680116B11F0040FFBD1147592F8BA
S1131E002E1011F0010FFAD0DDF80480B2F8401062
S1131E1089B240F82810A6E79D80196B11F0040FD1
S1131E20FBD11C7593F82E1011F0010FFAD0DDF8D8
S1131E300480B3F8401089B240F8281093E741F6C3
S1131E400E019980196B11F0040FFBD11C7593F8E6
S1131E502E1011F0010FFAD0DDF80480B3F8401011
S1131E6089B240F828107EE741F60F019980196B7A
S1131E7011F0040FFBD11C7593F82E1011F0010F13
S1131E80FAD0DDF80480B3F8401089B240F8281085
S1131E9069E741F608019980196B11F0040FFBD131
S1131EA01C7593F82E1011F0010FFAD0DDF80480A0
S1131EB0B3F8401089B240F8281054E701994FF064
S1131EC0630840F821804EE702B0BDE8F08100BF0E
S1131ED0002000439C0B0020001C004310B5094C5B
S1131EE0A37A43F00103A372074B98476379012255
S1131EF062F3471363712246136913F0040FFBD195
S1131F0010BD00BF00140042111D000070B508246C
S1131F10044D054E2868031D2B60B047013CF9D1E0
S1131F2070BD00BF200C00208510000081F000412E
S1131F3002E000BF83F0004330B54FEA41044FEAAA
S1131F40430594EA050F08BF90EA020F1FBF54EA45
S1131F50000C55EA020C7FEA645C7FEA655C00F0E1
S1131F60E2804FEA5454D4EB5555B8BF6D420CDDB2
S1131F702C4480EA020281EA030382EA000083EA35
S1131F80010180EA020281EA0303362D88BF30BDD5
S1131F9011F0004F4FEA01314FF4801C4CEA11312B
S1131FA002D0404261EB410113F0004F4FEA03338A
S1131FB04CEA133302D0524263EB430394EA050F15
S1131FC000F0A780A4F10104D5F1200E0DDB02FA84
S1131FD00EFC22FA05F2801841F1000103FA0EF218
S1131FE0801843FA05F359410EE0A5F120050EF1DE
S1131FF0200E012A03FA0EFC28BF4CF0020C43FA0F
S113200005F3C01851EBE37101F0004507D54FF01B
S1132010000EDCF1000C7EEB00006EEB0101B1F56B
S1132020801F1BD3B1F5001F0CD349085FEA3000B1
S11320304FEA3C0C04F101044FEA445212F5800FBC
S113204080F09A80BCF1004F08BF5FEA500C50F159
S1132050000041EB045141EA050130BD5FEA4C0C3C
S1132060404141EB010111F4801FA4F10104E9D1C5
S113207091F0000F04BF01460020B1FA81F308BFBC
S11320802033A3F10B03B3F120020CDA0C3208DD88
S113209002F1140CC2F10C0201FA0CF021FA02F163
S11320A00CE002F11402D8BFC2F1200C01FA02F1D3
S11320B020FA0CFCDCBF41EA0C019040E41AA2BFF8
S11320C001EB0451294330BD6FEA04041F3C1CDAC0
S11320D00C340EDC04F11404C4F1200220FA04F0E0
S11320E001FA02F340EA030021FA04F345EA03018A
S11320F030BDC4F10C04C4F1200220FA02F001FA4C
S113210004F340EA0300294630BD21FA04F02946CD
S113211030BD94F0000F83F4801306BF81F4801166
S11321200134013D4EE77FEA645C18BF7FEA655CD9
S113213029D094EA050F08BF90EA020F05D054EAAB
S1132140000C04BF1946104630BD91EA030F1EBFB0
S11321500021002030BD5FEA545C05D140004941B4
S113216028BF41F0004130BD14F580043CBF01F5A7
S1132170801130BD01F0004545F0FE4141F470018D
S11321804FF0000030BD7FEA645C1ABF1946104668
S11321907FEA655C1CBF0B46024650EA013406BF69
S11321A052EA033591EA030F41F4002130BD00BF28
S11321B090F0000F04BF0021704730B54FF48064E5
S11321C004F132044FF000054FF0000150E700BF66
S11321D090F0000F04BF0021704730B54FF48064C5
S11321E004F1320410F0004548BF40424FF00001B2
S11321F03EE700BF42004FEAE2014FEA31014FEAF5
S113220002701FBF12F07F4393F07F4F81F0605143
S1132210704792F0000F14BF93F07F4F704730B5B2
S11322204FF4607401F0004521F0004120E700BF45
S113223050EA010208BF704730B54FF000050AE0CC
S113224050EA010208BF704730B511F0004502D5CD
S1132250404261EB41014FF4806404F132045FEACF
S1132260915C3FF4DCAE4FF003025FEADC0C18BF74
S113227003325FEADC0C18BF033202EBDC02C2F16A
S1132280200300FA03FC20FA02F001FA03FE40EAFC
S11322900E0021FA02F11444C1E600BF70B54FF0FC
S11322A0FF0C4CF4E06C1CEA11541DBF1CEA1355DE
S11322B094EA0C0F95EA0C0F00F0DEF82C4481EA46
S11322C0030621EA4C5123EA4C5350EA013518BF66
S11322D052EA033541F4801143F4801338D0A0FB53
S11322E002CE4FF00005E1FB02E506F00042E0FB00
S11322F003E54FF00006E1FB03569CF0000F18BF06
S11323004EF0010EA4F1FF04B6F5007F64F54074AD
S113231004D25FEA4E0E6D4146EB060642EAC62140
S113232041EA55514FEAC52040EA5E504FEACE2EAD
S1132330B4F1FD0C88BFBCF5E06F1ED8BEF1004FB0
S113234008BF5FEA500E50F1000041EB045170BD2C
S113235006F0004646EA010140EA020081EA030170
S1132360B4EB5C04C2BFD4EB0C0541EA045170BD6C
S113237041F480114FF0000E013C00F3AB8014F1E6
S1132380360FDEBF002001F0004170BDC4F100042F
S1132390203C35DA0C341BDC04F11404C4F12005B0
S11323A000FA05F320FA04F001FA05F240EA02000B
S11323B001F0004221F0004110EBD37021FA04F641
S11323C042EB06015EEA430E08BF20EAD37070BDFB
S11323D0C4F10C04C4F1200500FA04F320FA05F05A
S11323E001FA04F240EA020001F0004110EBD3705C
S11323F041F100015EEA430E08BF20EAD37070BDCC
S1132400C4F1200500FA05F24EEA020E20FA04F3A4
S113241001FA05F243EA020321FA04F001F0004153
S113242021FA04F220EA020000EBD3705EEA430EC4
S113243008BF20EAD37070BD94F0000F0FD101F0F3
S11324400046400041EB010111F4801F08BF013C2C
S1132450F7D041EA060195F0000F18BF704703F06A
S11324600046520043EB030313F4801F08BF013DF1
S1132470F7D043EA0603704794EA0C0F0CEA1355AD
S113248018BF95EA0C0F0CD050EA410618BF52EA67
S11324904306D1D181EA030101F000414FF000006D
S11324A070BD50EA410606BF1046194652EA43067B
S11324B019D094EA0C0F02D150EA013613D195EAEF
S11324C00C0F05D152EA03361CBF104619460AD137
S11324D081EA030101F0004141F0FE4141F4700141
S11324E04FF0000070BD41F0FE4141F4780170BD31
S11324F070B54FF0FF0C4CF4E06C1CEA11541DBF96
S11325001CEA135594EA0C0F95EA0C0F00F0A7F897
S1132510A4EB050481EA030E52EA03354FEA0131C4
S113252000F088804FEA03334FF0805545EA1313D7
S113253043EA12634FEA022245EA111545EA10659F
S11325404FEA00260EF000419D4208BF964244F136
S1132550FD0404F5407402D25B084FEA3202B61A55
S113256065EB03055B084FEA32024FF480104FF429
S1132570002CB6EB020E75EB030E22BFB61A75469D
S113258040EA0C005B084FEA3202B6EB020E75EB30
S1132590030E22BFB61A754640EA5C005B084FEA98
S11325A03202B6EB020E75EB030E22BFB61A754665
S11325B040EA9C005B084FEA3202B6EB020E75EB70
S11325C0030E22BFB61A754640EADC0055EA060E31
S11325D018D04FEA051545EA16754FEA06164FEA74
S11325E0C30343EA52734FEAC2025FEA1C1CC0D120
S11325F011F4801F0BD141EA00014FF000004FF0AD
S1132600004CB6E711F4801F04BF01430020B4F16D
S1132610FD0C88BFBCF5E06F3FF6AFAEB5EB030C25
S113262004BFB6EB020C5FEA500C50F1000041EB22
S1132630045170BD0EF0004E4EEA113114EB5C04EF
S1132640C2BFD4EB0C0541EA045170BD41F48011C2
S11326504FF0000E013C90E645EA060E8DE60CEACA
S1132660135594EA0C0F08BF95EA0C0F3FF43BAFE7
S113267094EA0C0F0AD150EA01347FF434AF95EA9E
S11326800C0F7FF425AF104619462CE795EA0C0F82
S113269006D152EA03353FF4FDAE1046194622E74F
S11326A050EA410618BF52EA43067FF4C5AE50EA29
S11326B041047FF40DAF52EA43057FF4EBAE12E719
S11326C04FEA4102B2F1E04324BFB3F5001CDCF150
S11326D0FE5C0DD901F0004C4FEAC0024CEA507088
S11326E0B2F1004F40EB830008BF20F001007047B7
S11326F011F0804F21D113F13872BCBF01F00040BA
S1132700704741F480114FEA5252C2F11802C2F1EB
S1132710200C10FA0CF320FA02F018BF40F001006C
S11327204FEAC1234FEAD32303FA0CFC40EA0C001E
S113273023FA02F34FEA4303CCE77FEA625307D15B
S113274050EA01331EBF4FF0FE4040F44000704792
S113275001F0004040F0FE4040F40000704700BF2C
S113276080F0004002E000BF81F0004142001FBF42
S11327705FEA410392EA030F7FEA226C7FEA236C4B
S11327806AD04FEA1262D2EB1363C1BFD218414040
S113279048404140B8BF5B42192B88BF704710F0D6
S11327A0004F40F4000020F07F4018BF404211F079
S11327B0004F41F4000121F07F4118BF494292EAE1
S11327C0030F3FD0A2F1010241FA03FC10EB0C000D
S11327D0C3F1200301FA03F100F0004302D549429A
S11327E060EB4000B0F5000F13D3B0F1807F06D347
S11327F040084FEA310102F10102FE2A51D2B1F13F
S1132800004F40EBC25008BF20F0010040EA030033
S11328107047490040EB000010F4000FA2F10102E0
S1132820EDD1B0FA80FCACF1080CB2EB0C0200FA6A
S11328300CF0AABF00EBC25052421843BCBFD040B8
S11328401843704792F0000F81F4000106BF80F432
S113285000000132013BB5E74FEA41037FEA226CF5
S113286018BF7FEA236C21D092EA030F04D092F0C0
S1132870000F08BF0846704790EA010F1CBF0020F4
S1132880704712F07F4F04D1400028BF40F0004051
S1132890704712F100723CBF00F50000704700F071
S11328A0004343F0FE4040F4000070477FEA226298
S11328B016BF08467FEA23630146420206BF5FEA69
S11328C0412390EA010F40F4800070474FF0000369
S11328D004E000BF10F0004348BF40425FEA000C30
S11328E008BF704743F0964301464FF000001CE0D8
S11328F050EA010208BF70474FF000030AE000BF2E
S113290050EA010208BF704711F0004302D540426B
S113291061EB41015FEA010C02BF844601460020DD
S113292043F0B64308BFA3F18053A3F50003BCFAF8
S11329308CF2083AA3EBC25310DB01FA02FC6344A5
S113294000FA02FCC2F12002BCF1004F20FA02F2AC
S113295043EB020008BF20F00100704702F120029F
S113296001FA02FCC2F1200250EA4C0021FA02F200
S113297043EB020008BF20EADC7070474FF0FF0C05
S11329801CEAD0521EBF1CEAD15392EA0C0F93EA00
S11329900C0F6FD01A4480EA010C400218BF5FEAA2
S11329A041211ED04FF0006343EA501043EA511115
S11329B0A0FB01310CF00040B1F5000F3EBF49000F
S11329C041EAD3715B0040EA010062F17F02FD2A13
S11329D01DD8B3F1004F40EBC25008BF20F00100F6
S11329E0704790F0000F0CF0004C08BF49024CEA0D
S11329F0502040EA51207F3AC2BFD2F1FF0340EA9F
S1132A00C250704740F400004FF00003013A5DDC0F
S1132A1012F1190FDCBF00F000407047C2F1000250
S1132A20410021FA02F1C2F1200200FA02FC5FEA3D
S1132A30310040F1000053EA4C0308BF20EADC7087
S1132A40704792F0000F00F0004C02BF400010F4F9
S1132A50000F013AF9D040EA0C0093F0000F01F0A6
S1132A60004C02BF490011F4000F013BF9D041EAC8
S1132A700C018FE70CEAD15392EA0C0F18BF93EACA
S1132A800C0F0AD030F0004C18BF31F0004CD8D1F4
S1132A9080EA010000F00040704790F0000F17BF7B
S1132AA090F0004F084691F0000F91F0004F14D0C1
S1132AB092EA0C0F01D142020FD193EA0C0F03D119
S1132AC04B0218BF084608D180EA010000F000401C
S1132AD040F0FE4040F40000704740F0FE4040F4F7
S1132AE0400070474FF0FF0C1CEAD0521EBF1CEA96
S1132AF0D15392EA0C0F93EA0C0F69D0A2EB0302B4
S1132B0080EA010C49024FEA402037D04FF080534D
S1132B1043EA111143EA10130CF000408B4238BF12
S1132B205B0042F17D024FF4000C8B4224BF5B1A20
S1132B3040EA0C00B3EB510F24BFA3EB510340EA6E
S1132B405C00B3EB910F24BFA3EB910340EA9C001C
S1132B50B3EBD10F24BFA3EBD10340EADC001B018C
S1132B6018BF5FEA1C1CE0D1FD2A3FF650AF8B4230
S1132B7040EBC25008BF20F0010070470CF0004C3D
S1132B804CEA50207F32C2BFD2F1FF0340EAC25068
S1132B90704740F400004FF00003013A37E792F029
S1132BA0000F00F0004C02BF400010F4000F013A87
S1132BB0F9D040EA0C0093F0000F01F0004C02BF82
S1132BC0490011F4000F013BF9D041EA0C0195E7EB
S1132BD00CEAD15392EA0C0F08D142027FF47DAF84
S1132BE093EA0C0F7FF470AF084676E793EA0C0F74
S1132BF004D14B023FF44CAF08466EE730F0004C72
S1132C0018BF31F0004CCAD130F000427FF45CAF01
S1132C1031F000437FF43CAF5FE700BF4FEA40026E
S1132C20B2F1FE4F0FD34FF09E03B3EB12620DD9F6
S1132C304FEA002343F0004310F0004F23FA02F060
S1132C4018BF404270474FF00000704712F1610F07
S1132C5001D1420205D110F0004008BF6FF00040DE
S1132C6070474FF00000704770B50F4E0F4D761B44
S1132C70B61018BF002405D0013455F8043B98471A
S1132C80A642F9D10A4E0B4D761B00F0ABF8B610F4
S1132C9018BF002406D0013455F8043B9847A642D7
S1132CA0F9D170BD70BD00BFF02D0000F02D000003
S1132CB0F82D0000F02D0000024B13B1024800F083
S1132CC005B8704700000000D92C0000002301461D
S1132CD01A46184600F01EB838B50A4C0A4D641B53
S1132CE0A4100AD004F18043013B05EB8305013CA9
S1132CF055F804399847002CF9D1BDE8384000F064
S1132D007BB800BF082E0000042E0000704700BFEF
S1132D10704700BF2DE9F8432C4D064628689846B5
S1132D200F469146FFF7F2FF294B1C68D4F848314F
S1132D30002B3ED05A681F2A1CDC02F1010E76B12A
S1132D4003EB82010124C1F88890D3F888019440F0
S1132D502043022EC3F88801C1F8088123D002322F
S1132D60C3F804E0286843F82270FFF7D1FF00207D
S1132D70BDE8F883174B0BB34FF4C870AFF3008072
S1132D800346D8B1D4F848210260002141600A46C4
S1132D90C4F848014FF0010EC0F88811C0F88C1136
S1132DA0002EDCD0CCE7D3F88C110C43C3F88C4153
S1132DB0D5E704F5A673C4F84831BBE72868FFF7E4
S1132DC0A7FF4FF0FF30BDE8F88300BF600B002081
S1132DD0E02D0000000000000A53746172740A00C0
S1132DE038070020F8B500BFF8BC08BC9E46704701
S1132DF0B92C000089020000F8B500BFF8BC08BC7B
S10B2E009E46704765020000C4
S1132E08303030303030303030300000006CDC028C
S1132E186872733F0D000000663F0D0070613F0D3E
S1132E2800000000736E3F0D00000000693F0D00B4
S1132E386C3F0D00696C6B3F0D000000703F0D0086
S1132E48676C6D3F0D0000006C300D0040636F62CD
S1132E58310D000040636F62617320300D00000083
S1132E6840636F626173647220300D0063660D0005
S1132E780A0A5F5F5F5F5F5F5F5F5F5F5F5F5F5F00
S1132E885F5F5F5F5F5F5F5F5F5F5F5F5F5F5F5F46
S1132E985F5F5F5F5F5F5F5F5F5F5F5F5F5F5F5F36
S1132EA85F5F5F5F5F5F5F5F5F5F5F202020202061
S1132EB82020202020202020202020202020202006
S1132EC820202020202020200A0A20202020202022
S1132ED82020202020202020202041727469756D34
S1132EE820546563686E6F6C6F676965732C20493D
S1132EF86E632047656E20332E302052657620306D
S1132F082E30202020202020202020202020202097
S1132F1820202020202020202020202020202020A5
S1132F282020200A5F5F5F5F5F5F5F5F5F5F5F5FB7
S1132F385F5F5F5F5F5F5F5F5F5F5F5F5F5F5F5F95
S1132F485F5F5F5F5F5F5F5F5F5F5F5F5F5F5F5F85
S1132F585F5F5F5F5F5F5F5F5F5F5F5F5F20202032
S1132F682020202020202020202020202020202055
S1132F782020202020202020202020200A0A4D3D27
S1132F883E2053686F77204D656E752020202020E1
S1132F982020202020202020202020202020202025
S1132FA82020202020202020202020202020202015
S1132FB82020202020202020202020202020202005
S1132FC820202020202020202020202020202020F5
S1132FD8202020202020200A44787858585820445B
S1132FE83D416E616C6F67204F757420783D436175
S1132FF86E6E656C204E756D626572203020746F3C
S1133008203135205858583D30303020746F2032E4
S1133018353520202020202020202020202020207A
S11330282020202020202020202020202020202094
S1133038200A4B787858204B3D506F7274204B20EF
S113304878782D426974203020746F2031352058E7
S11330583D2053746174652048206F72204C2020F1
S11330682020202020202020202020202020202054
S11330782020202020202020202020202020202044
S113308820202020202020202020200A46782020CC
S1133098463D417065727475726520776865656C24
S11330A82020783D506F736974696F6E2020313D1C
S11330B8323520323D353020333D31303020343DF7
S11330C832353020353D35303020363D31303030E2
S11330D820202020202020202020202020202020E4
S11330E820202020200A547878782020543D5469E0
S11330F86C742073746167652020787878203D208B
S1133108416E676C65202030313520746F2031366C
S1133118352C20303930206973204E6F726D616C04
S11331282020202020202020202020202020202093
S11331382020202020202020202020202020200A99
S11331484C785820204C3D4C617365722020783DA2
S11331584C617365722030206F7220312020583DF5
S1133168456E61626C65206F722044697361626C9C
S1133178652031206F72203020202020202020203C
S11331882020202020202020202020202020202033
S11331982020202020202020200A427820423D2080
S11331A843616C20426F61726420783D4C206F72D9
S11331B8204820204F6E206F72204F666620202002
S11331C820202020202020202020202020202020F3
S11331D820202020202020202020202020202020E3
S11331E820202020202020202020202020202020D3
S11331F82020200A507858585858582020503D4CC0
S11332086173657220506F7765722020783D4C6138
S11332187365722030206F72203120205858585816
S1133228583D4C6173657220506F77657220323057
S1133238306D57203D20302E323030202020202081
S1133248202020202020202020202020200A477809
S11332582020473D4D61736B20576865656C2020BD
S1133268783D506F736974696F6E20204E443B43F8
S1133278523B5452414E532020202020202020200D
S11332882020202020202020202020202020202032
S11332982020202020202020202020202020202022
S11332A8202020202020200A313D302E303B312E92
S11332B8303B302E303B312E3020323D302E303BE7
S11332C8322E363B302E353B312E3020333D302ED6
S11332D8303B322E363B302E353B322E3020343DB7
S11332E8302E303B322E363B302E353B332E3020B9
S11332F8353D302E303B322E363B302E353B342E86
S1133308300A537820533D4265616D2053706163E0
S1133318696E6720783D30204E6F726D616C20783D
S11333283D31205265647563656420202020202087
S11333382020202020202020202020202020202081
S11333482020202020202020202020202020202071
S113335820202020202020202020200A45785820C2
S1133368453D4C6173657220496E666F726D617478
S1133378696F6E20783D4C617365722030206F72DE
S1133388203120583D3020486F75727320313D46F6
S113339861756C7420323D506F77657220333D53EC
S11333A8657269616C206E756D62657220202020DB
S11333B820202020200A343D4472697665206375F4
S11333C87272656E7420353D4F6E2F4F666620739A
S11333D87461746520363D496E7465726C6F636BF5
S11333E820737461746520373D4F7574707574204B
S11333F8706F7765722073657420706F696E7420BE
S11334082020202020202020202020202020200AC6
S1133418383D4D6F64656C206E756D626572202051
S11334282020202020202020202020202020202090
S11334382020202020202020202020202020202080
S11334482020202020202020202020202020202070
S11334582020202020202020202020202020202060
S11334682020202020202020200A543D3E2053687C
S11334786F772043757272656E7420426F6172644F
S11334882054656D7065726174757265205374613A
S11334987475732020202020202020202020202024
S11334A82020202020202020202020202020202010
S11334B82020202020202020202020202020202000
S11334C82020200A433D3E2053686F7720437572BD
S11334D872656E74205254442054656D706572612F
S11334E874757265205374617475730A0A232020F5
S11334F820202020202020202020202020202020C0
S113350820202020202020202020202020202020AF
S113351820202020202020202020202020000000FF
S1133528640000000A486F6E696E670A00000000B4
S1133538446F6E650A00000000000000240A0020A1
S11335488C0A0020F40A002000000000000000009B
S1133558000000000000000000000000000000005F
S1133568000000000000000000000000000000004F
S1133578000000000000000000000000000000003F
S1133588000000000000000000000000000000002F
S1133598000000000000000000000000000000001F
S11335A8000000000000000000000000000000000F
S11335B800000000000000000000000000000000FF
S11335C800000000000000000000000000000000EF
S11335D800000000000000000000000000000000DF
S11335E801000000000000000E33CDAB34126DE67C
S11335F8ECDE05000B0000000000000000000000E5
S113360800000000000000000000000000000000AE
S1133618000000000000000000000000000000009E
S1133628000000000000000000000000000000008E
S1133638000000000000000000000000000000007E
S1073968240C002007
S9030000FC
